{
  "_format": "hh-sol-artifact-1",
  "contractName": "Wallet",
  "sourceName": "contracts/Wallet.sol",
  "abi": [
    {
      "anonymous": false,
      "inputs": [
        {
          "indexed": false,
          "internalType": "uint256",
          "name": "numTransferLayers",
          "type": "uint256"
        }
      ],
      "name": "LogNumTransferLayers",
      "type": "event"
    },
    {
      "anonymous": false,
      "inputs": [
        {
          "indexed": false,
          "internalType": "uint256",
          "name": "numTransferLayers",
          "type": "uint256"
        },
        {
          "indexed": false,
          "internalType": "uint256",
          "name": "transferNum",
          "type": "uint256"
        },
        {
          "indexed": false,
          "internalType": "address",
          "name": "receiver",
          "type": "address"
        },
        {
          "indexed": false,
          "internalType": "uint256",
          "name": "amount",
          "type": "uint256"
        },
        {
          "indexed": false,
          "internalType": "uint256",
          "name": "transferLayersIndex",
          "type": "uint256"
        },
        {
          "indexed": false,
          "internalType": "bool",
          "name": "executed",
          "type": "bool"
        }
      ],
      "name": "LogTransferInQueue",
      "type": "event"
    },
    {
      "inputs": [
        {
          "internalType": "address",
          "name": "_receiver",
          "type": "address"
        }
      ],
      "name": "test",
      "outputs": [],
      "stateMutability": "nonpayable",
      "type": "function"
    }
  ],
  "bytecode": "0x608060405234801561001057600080fd5b506109d5806100206000396000f3fe608060405234801561001057600080fd5b506004361061002b5760003560e01c8063bb29998e14610030575b600080fd5b61004a600480360381019061004591906104f5565b61004c565b005b610054610071565b60006103e8905061006582826100cb565b61006d6101ce565b5050565b61008060008060006064610318565b61009060006001606460c8610318565b7fa647d18d78c5b0a63f0a0bb4628498be1a16e871d323855520ea4c9a231f05986000546040516100c1919061053b565b60405180910390a1565b60006040518060a0016040528060025481526020018473ffffffffffffffffffffffffffffffffffffffff1681526020018381526020016002548152602001600015158152509050806003600060025481526020019081526020016000206000820151816000015560208201518160010160006101000a81548173ffffffffffffffffffffffffffffffffffffffff021916908373ffffffffffffffffffffffffffffffffffffffff160217905550604082015181600201556060820151816003015560808201518160040160006101000a81548160ff021916908315150217905550905050600260008154809291906101c490610585565b9190505550505050565b60005b600254811015610315576000600360008381526020019081526020016000206040518060a0016040529081600082015481526020016001820160009054906101000a900473ffffffffffffffffffffffffffffffffffffffff1673ffffffffffffffffffffffffffffffffffffffff1673ffffffffffffffffffffffffffffffffffffffff16815260200160028201548152602001600382015481526020016004820160009054906101000a900460ff16151515158152505090506000816000015190506000826020015190506000836040015190506000846060015190506000856080015190507f914f877760b6205ea5168d94ce25172b59167690d7f8045e48a8a3206a80d49260005486868686866040516102f4969594939291906105f7565b60405180910390a1505050505050808061030d90610585565b9150506101d1565b50565b600060016000868152602001908152602001600020600085815260200190815260200160002090506000604051806040016040528085815260200184815250905080826000016000820151816000015560208201518160010155905050600060405180604001604052806040518060400160405280600381526020017f455448000000000000000000000000000000000000000000000000000000000081525081526020016040518060400160405280600481526020017f5553444300000000000000000000000000000000000000000000000000000000815250815250905060005b600281101561047157600082826002811061041957610418610658565b5b6020020151905080856003016000848152602001908152602001600020908161044291906108cd565b5084600201600081548092919061045890610585565b919050555050808061046990610585565b9150506103fb565b5060008081548092919061048490610585565b919050555050505050505050565b600080fd5b600073ffffffffffffffffffffffffffffffffffffffff82169050919050565b60006104c282610497565b9050919050565b6104d2816104b7565b81146104dd57600080fd5b50565b6000813590506104ef816104c9565b92915050565b60006020828403121561050b5761050a610492565b5b6000610519848285016104e0565b91505092915050565b6000819050919050565b61053581610522565b82525050565b6000602082019050610550600083018461052c565b92915050565b7f4e487b7100000000000000000000000000000000000000000000000000000000600052601160045260246000fd5b600061059082610522565b91507fffffffffffffffffffffffffffffffffffffffffffffffffffffffffffffffff82036105c2576105c1610556565b5b600182019050919050565b6105d6816104b7565b82525050565b60008115159050919050565b6105f1816105dc565b82525050565b600060c08201905061060c600083018961052c565b610619602083018861052c565b61062660408301876105cd565b610633606083018661052c565b610640608083018561052c565b61064d60a08301846105e8565b979650505050505050565b7f4e487b7100000000000000000000000000000000000000000000000000000000600052603260045260246000fd5b600081519050919050565b7f4e487b7100000000000000000000000000000000000000000000000000000000600052604160045260246000fd5b7f4e487b7100000000000000000000000000000000000000000000000000000000600052602260045260246000fd5b6000600282049050600182168061070857607f821691505b60208210810361071b5761071a6106c1565b5b50919050565b60008190508160005260206000209050919050565b60006020601f8301049050919050565b600082821b905092915050565b6000600883026107837fffffffffffffffffffffffffffffffffffffffffffffffffffffffffffffffff82610746565b61078d8683610746565b95508019841693508086168417925050509392505050565b6000819050919050565b60006107ca6107c56107c084610522565b6107a5565b610522565b9050919050565b6000819050919050565b6107e4836107af565b6107f86107f0826107d1565b848454610753565b825550505050565b600090565b61080d610800565b6108188184846107db565b505050565b5b8181101561083c57610831600082610805565b60018101905061081e565b5050565b601f8211156108815761085281610721565b61085b84610736565b8101602085101561086a578190505b61087e61087685610736565b83018261081d565b50505b505050565b600082821c905092915050565b60006108a460001984600802610886565b1980831691505092915050565b60006108bd8383610893565b9150826002028217905092915050565b6108d682610687565b67ffffffffffffffff8111156108ef576108ee610692565b5b6108f982546106f0565b610904828285610840565b600060209050601f8311600181146109375760008415610925578287015190505b61092f85826108b1565b865550610997565b601f19841661094586610721565b60005b8281101561096d57848901518255600182019150602085019450602081019050610948565b8683101561098a5784890151610986601f891682610893565b8355505b6001600288020188555050505b50505050505056fea2646970667358221220cf0745064ea3d9c0df39cde399c725760cfcccc9de9c4c630bf784295f46fe7064736f6c63430008110033",
  "linkReferences": {},
  "deployedLinkReferences": {}
}