{
  "_format": "hh-sol-artifact-1",
  "contractName": "Wallet",
  "sourceName": "contracts/Wallet.sol",
  "abi": [
    {
      "anonymous": false,
      "inputs": [
        {
          "indexed": false,
          "internalType": "uint256",
          "name": "numTransferLayers",
          "type": "uint256"
        }
      ],
      "name": "LogNumTransferLayers",
      "type": "event"
    },
    {
      "anonymous": false,
      "inputs": [
        {
          "indexed": false,
          "internalType": "uint256",
          "name": "transferNum",
          "type": "uint256"
        },
        {
          "indexed": false,
          "internalType": "address",
          "name": "receiver",
          "type": "address"
        },
        {
          "indexed": false,
          "internalType": "uint256",
          "name": "amount",
          "type": "uint256"
        },
        {
          "indexed": false,
          "internalType": "uint256",
          "name": "transferLayersIndex",
          "type": "uint256"
        },
        {
          "indexed": false,
          "internalType": "bool",
          "name": "executed",
          "type": "bool"
        }
      ],
      "name": "LogTransferInQueue",
      "type": "event"
    },
    {
      "inputs": [
        {
          "internalType": "address",
          "name": "_receiver",
          "type": "address"
        }
      ],
      "name": "test",
      "outputs": [],
      "stateMutability": "nonpayable",
      "type": "function"
    }
  ],
  "bytecode": "0x608060405234801561001057600080fd5b5061050c806100206000396000f3fe608060405234801561001057600080fd5b506004361061002b5760003560e01c8063bb29998e14610030575b600080fd5b61004a60048036038101906100459190610381565b61004c565b005b610054610071565b60006103e8905061006582826100bc565b61006d6101bf565b5050565b610079610305565b610081610305565b7fa647d18d78c5b0a63f0a0bb4628498be1a16e871d323855520ea4c9a231f05986000546040516100b291906103c7565b60405180910390a1565b60006040518060a0016040528060025481526020018473ffffffffffffffffffffffffffffffffffffffff1681526020018381526020016002548152602001600015158152509050806003600060025481526020019081526020016000206000820151816000015560208201518160010160006101000a81548173ffffffffffffffffffffffffffffffffffffffff021916908373ffffffffffffffffffffffffffffffffffffffff160217905550604082015181600201556060820151816003015560808201518160040160006101000a81548160ff021916908315150217905550905050600260008154809291906101b590610411565b9190505550505050565b60005b600254811015610302576000600360008381526020019081526020016000206040518060a0016040529081600082015481526020016001820160009054906101000a900473ffffffffffffffffffffffffffffffffffffffff1673ffffffffffffffffffffffffffffffffffffffff1673ffffffffffffffffffffffffffffffffffffffff16815260200160028201548152602001600382015481526020016004820160009054906101000a900460ff16151515158152505090506000816000015190506000826020015190506000836040015190506000846060015190506000856080015190507f65ae562d46ac4b2929c6c465fe96c0b0468ad8ac556018bfccc337521a8863ad85858585856040516102e1959493929190610483565b60405180910390a150505050505080806102fa90610411565b9150506101c2565b50565b60008081548092919061031790610411565b9190505550565b600080fd5b600073ffffffffffffffffffffffffffffffffffffffff82169050919050565b600061034e82610323565b9050919050565b61035e81610343565b811461036957600080fd5b50565b60008135905061037b81610355565b92915050565b6000602082840312156103975761039661031e565b5b60006103a58482850161036c565b91505092915050565b6000819050919050565b6103c1816103ae565b82525050565b60006020820190506103dc60008301846103b8565b92915050565b7f4e487b7100000000000000000000000000000000000000000000000000000000600052601160045260246000fd5b600061041c826103ae565b91507fffffffffffffffffffffffffffffffffffffffffffffffffffffffffffffffff820361044e5761044d6103e2565b5b600182019050919050565b61046281610343565b82525050565b60008115159050919050565b61047d81610468565b82525050565b600060a08201905061049860008301886103b8565b6104a56020830187610459565b6104b260408301866103b8565b6104bf60608301856103b8565b6104cc6080830184610474565b969550505050505056fea264697066735822122037f696b9153cdc34b0085948b7982559030fa4fbec4c0936b84e564239a0848f64736f6c63430008110033",
  "linkReferences": {},
  "deployedLinkReferences": {}
}